{
  "contractName": "Casino",
  "abi": [
    {
      "inputs": [
        {
          "internalType": "uint256",
          "name": "minimumBet",
          "type": "uint256"
        },
        {
          "internalType": "uint8",
          "name": "maxAmountOfBets",
          "type": "uint8"
        }
      ],
      "stateMutability": "nonpayable",
      "type": "constructor"
    },
    {
      "anonymous": false,
      "inputs": [],
      "name": "DataReset",
      "type": "event"
    },
    {
      "anonymous": false,
      "inputs": [
        {
          "indexed": true,
          "internalType": "address",
          "name": "participant",
          "type": "address"
        },
        {
          "indexed": true,
          "internalType": "uint8",
          "name": "selectedNum",
          "type": "uint8"
        },
        {
          "indexed": false,
          "internalType": "uint256",
          "name": "betAmount",
          "type": "uint256"
        }
      ],
      "name": "NewBet",
      "type": "event"
    },
    {
      "anonymous": false,
      "inputs": [
        {
          "indexed": true,
          "internalType": "address",
          "name": "previousOwner",
          "type": "address"
        },
        {
          "indexed": true,
          "internalType": "address",
          "name": "newOwner",
          "type": "address"
        }
      ],
      "name": "OwnershipTransferred",
      "type": "event"
    },
    {
      "anonymous": false,
      "inputs": [
        {
          "indexed": true,
          "internalType": "uint8",
          "name": "winnerNumber",
          "type": "uint8"
        },
        {
          "indexed": false,
          "internalType": "address[255]",
          "name": "winners",
          "type": "address[255]"
        }
      ],
      "name": "WinnersDetermined",
      "type": "event"
    },
    {
      "inputs": [],
      "name": "_maxAmountOfBets",
      "outputs": [
        {
          "internalType": "uint8",
          "name": "",
          "type": "uint8"
        }
      ],
      "stateMutability": "view",
      "type": "function",
      "constant": true
    },
    {
      "inputs": [],
      "name": "_minimumBet",
      "outputs": [
        {
          "internalType": "uint256",
          "name": "",
          "type": "uint256"
        }
      ],
      "stateMutability": "view",
      "type": "function",
      "constant": true
    },
    {
      "inputs": [],
      "name": "_numberOfBets",
      "outputs": [
        {
          "internalType": "uint8",
          "name": "",
          "type": "uint8"
        }
      ],
      "stateMutability": "view",
      "type": "function",
      "constant": true
    },
    {
      "inputs": [
        {
          "internalType": "uint256",
          "name": "",
          "type": "uint256"
        }
      ],
      "name": "_players",
      "outputs": [
        {
          "internalType": "address",
          "name": "",
          "type": "address"
        }
      ],
      "stateMutability": "view",
      "type": "function",
      "constant": true
    },
    {
      "inputs": [],
      "name": "_totalBet",
      "outputs": [
        {
          "internalType": "uint256",
          "name": "",
          "type": "uint256"
        }
      ],
      "stateMutability": "view",
      "type": "function",
      "constant": true
    },
    {
      "inputs": [],
      "name": "owner",
      "outputs": [
        {
          "internalType": "address",
          "name": "",
          "type": "address"
        }
      ],
      "stateMutability": "view",
      "type": "function",
      "constant": true
    },
    {
      "inputs": [],
      "name": "renounceOwnership",
      "outputs": [],
      "stateMutability": "nonpayable",
      "type": "function"
    },
    {
      "inputs": [
        {
          "internalType": "address",
          "name": "newOwner",
          "type": "address"
        }
      ],
      "name": "transferOwnership",
      "outputs": [],
      "stateMutability": "nonpayable",
      "type": "function"
    },
    {
      "inputs": [],
      "name": "kill",
      "outputs": [],
      "stateMutability": "nonpayable",
      "type": "function"
    },
    {
      "inputs": [
        {
          "internalType": "address",
          "name": "playerAddress",
          "type": "address"
        }
      ],
      "name": "getPlayerInfo",
      "outputs": [
        {
          "internalType": "uint256",
          "name": "",
          "type": "uint256"
        },
        {
          "internalType": "uint8",
          "name": "",
          "type": "uint8"
        }
      ],
      "stateMutability": "view",
      "type": "function",
      "constant": true
    },
    {
      "inputs": [
        {
          "internalType": "uint8",
          "name": "selectedNum",
          "type": "uint8"
        }
      ],
      "name": "bet",
      "outputs": [],
      "stateMutability": "payable",
      "type": "function",
      "payable": true
    },
    {
      "inputs": [],
      "name": "generateWinnerNumber",
      "outputs": [
        {
          "internalType": "uint8",
          "name": "",
          "type": "uint8"
        }
      ],
      "stateMutability": "view",
      "type": "function",
      "constant": true
    },
    {
      "inputs": [
        {
          "internalType": "address",
          "name": "player",
          "type": "address"
        }
      ],
      "name": "checkPlayerExists",
      "outputs": [
        {
          "internalType": "bool",
          "name": "",
          "type": "bool"
        }
      ],
      "stateMutability": "view",
      "type": "function",
      "constant": true
    },
    {
      "inputs": [
        {
          "internalType": "uint8",
          "name": "winnerNumber",
          "type": "uint8"
        }
      ],
      "name": "distributePrizes",
      "outputs": [],
      "stateMutability": "nonpayable",
      "type": "function"
    },
    {
      "inputs": [],
      "name": "resetData",
      "outputs": [],
      "stateMutability": "nonpayable",
      "type": "function"
    }
  ],
  "bytecode": "0x60806040523480156200001157600080fd5b50604051620017ce380380620017ce833981810160405281019062000037919062000155565b6000620000496200011f60201b60201c565b9050806000806101000a81548173ffffffffffffffffffffffffffffffffffffffff021916908373ffffffffffffffffffffffffffffffffffffffff1602179055508073ffffffffffffffffffffffffffffffffffffffff16600073ffffffffffffffffffffffffffffffffffffffff167f8be0079c531659141344cd1fd0a4f28419497f9722a3daafe3b4186f6b6457e060405160405180910390a35060008211620000f557600080fd5b8160018190555080600360016101000a81548160ff021916908360ff1602179055505050620001e1565b600033905090565b6000815190506200013881620001ad565b92915050565b6000815190506200014f81620001c7565b92915050565b600080604083850312156200016957600080fd5b6000620001798582860162000127565b92505060206200018c858286016200013e565b9150509250929050565b6000819050919050565b600060ff82169050919050565b620001b88162000196565b8114620001c457600080fd5b50565b620001d281620001a0565b8114620001de57600080fd5b50565b6115dd80620001f16000396000f3fe6080604052600436106100e85760003560e01c8063715018a61161008a578063d0821b0e11610059578063d0821b0e146102bf578063dc80d24d146102db578063f2fde38b14610306578063fb1796e01461032f576100e8565b8063715018a6146102275780638da5cb5b1461023e578063b77418ef14610269578063ba8aaf3c14610294576100e8565b806341c0e1b5116100c657806341c0e1b514610192578063478c4e0e146101a957806359328401146101c057806361edf9b2146101fe576100e8565b806323430932146100ed5780634081d916146101185780634158782314610155575b600080fd5b3480156100f957600080fd5b5061010261035a565b60405161010f91906112e7565b60405180910390f35b34801561012457600080fd5b5061013f600480360381019061013a9190610ff4565b610360565b60405161014c919061126c565b60405180910390f35b34801561016157600080fd5b5061017c6004803603810190610177919061101d565b61043b565b6040516101899190611235565b60405180910390f35b34801561019e57600080fd5b506101a761047a565b005b3480156101b557600080fd5b506101be61051b565b005b3480156101cc57600080fd5b506101e760048036038101906101e29190610ff4565b61057b565b6040516101f5929190611302565b60405180910390f35b34801561020a57600080fd5b5061022560048036038101906102209190611046565b61061a565b005b34801561023357600080fd5b5061023c61096f565b005b34801561024a57600080fd5b50610253610aa9565b6040516102609190611235565b60405180910390f35b34801561027557600080fd5b5061027e610ad2565b60405161028b919061132b565b60405180910390f35b3480156102a057600080fd5b506102a9610ae5565b6040516102b691906112e7565b60405180910390f35b6102d960048036038101906102d49190611046565b610aeb565b005b3480156102e757600080fd5b506102f0610d1a565b6040516102fd919061132b565b60405180910390f35b34801561031257600080fd5b5061032d60048036038101906103289190610ff4565b610d2d565b005b34801561033b57600080fd5b50610344610ed6565b604051610351919061132b565b60405180910390f35b60025481565b600080600090505b6004805490508160ff161015610430578273ffffffffffffffffffffffffffffffffffffffff1660048260ff16815481106103cc577f4e487b7100000000000000000000000000000000000000000000000000000000600052603260045260246000fd5b9060005260206000200160009054906101000a900473ffffffffffffffffffffffffffffffffffffffff1673ffffffffffffffffffffffffffffffffffffffff16141561041d576001915050610436565b8080610428906114a9565b915050610368565b50600090505b919050565b6004818154811061044b57600080fd5b906000526020600020016000915054906101000a900473ffffffffffffffffffffffffffffffffffffffff1681565b610482610efe565b73ffffffffffffffffffffffffffffffffffffffff166104a0610aa9565b73ffffffffffffffffffffffffffffffffffffffff16146104f6576040517f08c379a00000000000000000000000000000000000000000000000000000000081526004016104ed906112c7565b60405180910390fd5b6000610500610aa9565b90508073ffffffffffffffffffffffffffffffffffffffff16ff5b7f4070f902b7aba2d975c06dcf711c1881202fab142511c113e8f1e87c270b967f60405160405180910390a1600460006105559190610f54565b60006002819055506000600360006101000a81548160ff021916908360ff160217905550565b600080600560008473ffffffffffffffffffffffffffffffffffffffff1673ffffffffffffffffffffffffffffffffffffffff16815260200190815260200160002060000154600560008573ffffffffffffffffffffffffffffffffffffffff1673ffffffffffffffffffffffffffffffffffffffff16815260200190815260200160002060010160009054906101000a900460ff1691509150915091565b610622610f75565b6000805b6004805490508160ff1610156107f457600060048260ff1681548110610675577f4e487b7100000000000000000000000000000000000000000000000000000000600052603260045260246000fd5b9060005260206000200160009054906101000a900473ffffffffffffffffffffffffffffffffffffffff1690508460ff16600560008373ffffffffffffffffffffffffffffffffffffffff1673ffffffffffffffffffffffffffffffffffffffff16815260200190815260200160002060010160009054906101000a900460ff1660ff1614156107825780848460ff1660ff811061073c577f4e487b7100000000000000000000000000000000000000000000000000000000600052603260045260246000fd5b602002019073ffffffffffffffffffffffffffffffffffffffff16908173ffffffffffffffffffffffffffffffffffffffff1681525050828061077e906114a9565b9350505b600560008273ffffffffffffffffffffffffffffffffffffffff1673ffffffffffffffffffffffffffffffffffffffff1681526020019081526020016000206000808201600090556001820160006101000a81549060ff021916905550505080806107ec906114a9565b915050610626565b50600060ff60025461080691906113da565b90508360ff167f609cd3956242a6804ecb1008afecfb8c2c5b2a0a8d191f458de1679936f7495c8460405161083b9190611250565b60405180910390a260005b8260ff1681101561096057600073ffffffffffffffffffffffffffffffffffffffff16848260ff81106108a2577f4e487b7100000000000000000000000000000000000000000000000000000000600052603260045260246000fd5b602002015173ffffffffffffffffffffffffffffffffffffffff161461094d576000848260ff81106108fd577f4e487b7100000000000000000000000000000000000000000000000000000000600052603260045260246000fd5b602002015190508073ffffffffffffffffffffffffffffffffffffffff166108fc849081150290604051600060405180830381858888f1935050505015801561094a573d6000803e3d6000fd5b50505b808061095890611460565b915050610846565b5061096961051b565b50505050565b610977610efe565b73ffffffffffffffffffffffffffffffffffffffff16610995610aa9565b73ffffffffffffffffffffffffffffffffffffffff16146109eb576040517f08c379a00000000000000000000000000000000000000000000000000000000081526004016109e2906112c7565b60405180910390fd5b600073ffffffffffffffffffffffffffffffffffffffff1660008054906101000a900473ffffffffffffffffffffffffffffffffffffffff1673ffffffffffffffffffffffffffffffffffffffff167f8be0079c531659141344cd1fd0a4f28419497f9722a3daafe3b4186f6b6457e060405160405180910390a360008060006101000a81548173ffffffffffffffffffffffffffffffffffffffff021916908373ffffffffffffffffffffffffffffffffffffffff160217905550565b60008060009054906101000a900473ffffffffffffffffffffffffffffffffffffffff16905090565b600360019054906101000a900460ff1681565b60015481565b610af433610360565b15610afe57600080fd5b60008160ff16118015610b155750600a8160ff1611155b610b1e57600080fd5b600154341015610b2d57600080fd5b8060ff163373ffffffffffffffffffffffffffffffffffffffff167fe1a523bbf95fd49575ffad35fa052ddd0c370973d3c6a941dab58170c5d3020f34604051610b7791906112e7565b60405180910390a334600560003373ffffffffffffffffffffffffffffffffffffffff1673ffffffffffffffffffffffffffffffffffffffff1681526020019081526020016000206000018190555080600560003373ffffffffffffffffffffffffffffffffffffffff1673ffffffffffffffffffffffffffffffffffffffff16815260200190815260200160002060010160006101000a81548160ff021916908360ff1602179055506003600081819054906101000a900460ff1680929190610c40906114a9565b91906101000a81548160ff021916908360ff160217905550506004339080600181540180825580915050600190039060005260206000200160009091909190916101000a81548173ffffffffffffffffffffffffffffffffffffffff021916908373ffffffffffffffffffffffffffffffffffffffff1602179055503460026000828254610cce9190611384565b92505081905550600360019054906101000a900460ff1660ff16600360009054906101000a900460ff1660ff1610610d17576000610d0a610ed6565b9050610d158161061a565b505b50565b600360009054906101000a900460ff1681565b610d35610efe565b73ffffffffffffffffffffffffffffffffffffffff16610d53610aa9565b73ffffffffffffffffffffffffffffffffffffffff1614610da9576040517f08c379a0000000000000000000000000000000000000000000000000000000008152600401610da0906112c7565b60405180910390fd5b600073ffffffffffffffffffffffffffffffffffffffff168173ffffffffffffffffffffffffffffffffffffffff161415610e19576040517f08c379a0000000000000000000000000000000000000000000000000000000008152600401610e1090611287565b60405180910390fd5b8073ffffffffffffffffffffffffffffffffffffffff1660008054906101000a900473ffffffffffffffffffffffffffffffffffffffff1673ffffffffffffffffffffffffffffffffffffffff167f8be0079c531659141344cd1fd0a4f28419497f9722a3daafe3b4186f6b6457e060405160405180910390a3806000806101000a81548173ffffffffffffffffffffffffffffffffffffffff021916908373ffffffffffffffffffffffffffffffffffffffff16021790555050565b6000610ef96001600a43610eea91906114d3565b610ef49190611384565b610f06565b905090565b600033905090565b60006101008210610f4c576040517f08c379a0000000000000000000000000000000000000000000000000000000008152600401610f43906112a7565b60405180910390fd5b819050919050565b5080546000825590600052602060002090810190610f729190610f98565b50565b60405180611fe0016040528060ff90602082028036833780820191505090505090565b5b80821115610fb1576000816000905550600101610f99565b5090565b600081359050610fc481611562565b92915050565b600081359050610fd981611579565b92915050565b600081359050610fee81611590565b92915050565b60006020828403121561100657600080fd5b600061101484828501610fb5565b91505092915050565b60006020828403121561102f57600080fd5b600061103d84828501610fca565b91505092915050565b60006020828403121561105857600080fd5b600061106684828501610fdf565b91505092915050565b600061107b8383611087565b60208301905092915050565b6110908161140b565b82525050565b61109f8161140b565b82525050565b6110ae81611350565b6110b88184611368565b92506110c382611346565b8060005b838110156110f45781516110db878261106f565b96506110e68361135b565b9250506001810190506110c7565b505050505050565b6111058161141d565b82525050565b6000611118602683611373565b91507f4f776e61626c653a206e6577206f776e657220697320746865207a65726f206160008301527f64647265737300000000000000000000000000000000000000000000000000006020830152604082019050919050565b600061117e602583611373565b91507f53616665436173743a2076616c756520646f65736e27742066697420696e203860008301527f20626974730000000000000000000000000000000000000000000000000000006020830152604082019050919050565b60006111e4602083611373565b91507f4f776e61626c653a2063616c6c6572206973206e6f7420746865206f776e65726000830152602082019050919050565b61122081611449565b82525050565b61122f81611453565b82525050565b600060208201905061124a6000830184611096565b92915050565b6000611fe08201905061126660008301846110a5565b92915050565b600060208201905061128160008301846110fc565b92915050565b600060208201905081810360008301526112a08161110b565b9050919050565b600060208201905081810360008301526112c081611171565b9050919050565b600060208201905081810360008301526112e0816111d7565b9050919050565b60006020820190506112fc6000830184611217565b92915050565b60006040820190506113176000830185611217565b6113246020830184611226565b9392505050565b60006020820190506113406000830184611226565b92915050565b6000819050919050565b600060ff9050919050565b6000602082019050919050565b600081905092915050565b600082825260208201905092915050565b600061138f82611449565b915061139a83611449565b9250827fffffffffffffffffffffffffffffffffffffffffffffffffffffffffffffffff038211156113cf576113ce611504565b5b828201905092915050565b60006113e582611449565b91506113f083611449565b925082611400576113ff611533565b5b828204905092915050565b600061141682611429565b9050919050565b60008115159050919050565b600073ffffffffffffffffffffffffffffffffffffffff82169050919050565b6000819050919050565b600060ff82169050919050565b600061146b82611449565b91507fffffffffffffffffffffffffffffffffffffffffffffffffffffffffffffffff82141561149e5761149d611504565b5b600182019050919050565b60006114b482611453565b915060ff8214156114c8576114c7611504565b5b600182019050919050565b60006114de82611449565b91506114e983611449565b9250826114f9576114f8611533565b5b828206905092915050565b7f4e487b7100000000000000000000000000000000000000000000000000000000600052601160045260246000fd5b7f4e487b7100000000000000000000000000000000000000000000000000000000600052601260045260246000fd5b61156b8161140b565b811461157657600080fd5b50565b61158281611449565b811461158d57600080fd5b50565b61159981611453565b81146115a457600080fd5b5056fea2646970667358221220c286a71fdf85c344b51b00cb7e718acb958ffaaec68867624c4717003fd1d2a764736f6c63430008000033",
  "immutableReferences": {},
  "source": "// SPDX-License-Identifier: MIT\r\npragma solidity 0.8.0;\r\n\r\nimport \"../node_modules/@openzeppelin/contracts/access/Ownable.sol\";\r\nimport \"../node_modules/@openzeppelin/contracts/utils/math/SafeCast.sol\";\r\n\r\n/**\r\n * NOTE: `SafeMath` is no longer needed starting with Solidity 0.8. The compiler\r\n * now has built in overflow checking.\r\n */\r\n\r\n/*\r\n* @author Igor Yakubov\r\n* @title Casino Contract - Full Stack DApp (Demo) \r\n*/\r\ncontract Casino is Ownable {\r\n\t\r\n\tusing SafeCast for uint256;\r\n\t\r\n\t// Minimum Bet in Wei\r\n\tuint256 public _minimumBet;\r\n\t// Total amount of bets in Wei\r\n\tuint256 public _totalBet;\r\n\t// Total number of bets.\r\n\tuint8 public _numberOfBets;\r\n\t// Max number of bets (255).\r\n\tuint8 public _maxAmountOfBets;\r\n\taddress[] public _players;\r\n\t\r\n\tstruct Player {\r\n\t\t// Bet amount in Wei\r\n\t\tuint256 amountBet;\r\n\t\t// Selected number (0 < x <= 10)\r\n\t\tuint8 selectedNum;\r\n\t}\r\n\t\r\n\t// Player's address => user info (Player)\r\n\tmapping(address => Player) _playerInfo;\r\n\t\r\n\t// --- Events Declaration ---\r\n\t\r\n\tevent NewBet(\r\n\t\taddress indexed participant, \r\n\t\tuint8 indexed selectedNum, \r\n\t\tuint256 betAmount\r\n\t);\r\n\t\r\n\tevent WinnersDetermined(\r\n\t\tuint8 indexed winnerNumber, \r\n\t\taddress[255] winners\r\n\t);\r\n\t\r\n\tevent DataReset();\r\n\t\r\n\t// --- end: Events Declaration ---\r\n\t\r\n\t/*\r\n\t* @dev Create a new Casino Contract instance\r\n\t* @param minimumBet A minimum allowed bet amount in Wei units.\r\n\t* @param maxAmountOfBets A maximum number of bets before \r\n\t* the winners are selected and prizes distributed.\r\n\t*/\r\n\tconstructor(uint256 minimumBet, uint8 maxAmountOfBets) {\r\n\t\trequire(minimumBet > 0);\r\n\t\t_minimumBet = minimumBet;\r\n\t\t_maxAmountOfBets = maxAmountOfBets;\r\n\t}\r\n\t\r\n\t/*\r\n\t* Destroy the contract instance.\r\n\t*/\r\n\tfunction kill() public onlyOwner {\r\n\t\taddress payable owner = payable(owner());\r\n\t\tselfdestruct(owner);\r\n\t}\r\n\t\r\n\tfunction getPlayerInfo(address playerAddress) public view returns(uint256, uint8) {\r\n\t\treturn (_playerInfo[playerAddress].amountBet, _playerInfo[playerAddress].selectedNum);\r\n\t}\r\n\t\r\n\t/* \r\n\t* Accept the bet from the player.\r\n\t* @param selectedNum The number that the player want to bet on.\r\n\t* A number should be [0 < x <= 10]\r\n\t* and a Player can bet only once in each round.\r\n\t*/\r\n\tfunction bet(uint8 selectedNum) public payable {\r\n\t\trequire(!checkPlayerExists(msg.sender));\r\n\t\trequire(selectedNum > 0 && selectedNum <= 10);\r\n\t\trequire(msg.value >= _minimumBet);\r\n\t\t\r\n\t\temit NewBet(msg.sender, selectedNum, msg.value);\r\n\t\t\r\n\t\t_playerInfo[msg.sender].amountBet = msg.value;\r\n\t\t_playerInfo[msg.sender].selectedNum = selectedNum;\r\n\t\t_numberOfBets++;\r\n\t\t_players.push(msg.sender);\r\n\t\t_totalBet += msg.value;\r\n\t\t\r\n\t\tif (_numberOfBets >= _maxAmountOfBets) {\r\n\t\t\t uint8 winnerNumber = generateWinnerNumber();\r\n\t\t\t distributePrizes(winnerNumber);\r\n\t\t}\r\n\t}\r\n\t\r\n\t/*\r\n\t* Generate a winner number.\r\n\t*/\r\n\tfunction generateWinnerNumber() public view returns(uint8) {\r\n\t\t// TODO: make it more secure\r\n\t\t// miners can exploit it\r\n\t\treturn (block.number % 10 + 1).toUint8();\r\n\t}\r\n\t\r\n\t/*\r\n\t* Check if player already made a bet.\r\n\t* @param player Ethereum address of the player.\r\n\t*/\r\n\tfunction checkPlayerExists(address player) public view returns(bool) {\r\n\t\t// TODO: use map \r\n\t\tfor (uint8 i = 0; i < _players.length; i++) {\r\n\t\t\tif (_players[i] == player) {\r\n\t\t\t\treturn true;\r\n\t\t\t}\r\n\t\t}\r\n\t\t\r\n\t\treturn false;\r\n\t}\r\n\t\r\n\t/*\r\n\t* Distribute prizes to the winners.\r\n\t* @param A winner number.\r\n\t*/\r\n\tfunction distributePrizes(uint8 winnerNumber) public {\r\n\t\t// temp in memory array \r\n\t\t// it must have a fixed size\r\n\t\taddress[255] memory winners;\r\n\t\tuint8 winnersCounter = 0;\r\n\t\t\r\n\t\tfor (uint8 i = 0; i < _players.length; i++) {\r\n\t\t\taddress playerAddress = _players[i];\r\n\t\t\tif (_playerInfo[playerAddress].selectedNum == winnerNumber) {\r\n\t\t\t\twinners[winnersCounter] = playerAddress;\r\n\t\t\t\twinnersCounter++;\r\n\t\t\t}\r\n\t\t\t\r\n\t\t\t// clean the map\r\n\t\t\tdelete _playerInfo[playerAddress];\r\n\t\t}\r\n\t\t\r\n\t\t// TODO: make distribution lelative to the bet amount of the player\r\n\t\tuint256 winnerEtherAmount = _totalBet / winners.length;\r\n\t\t\r\n\t\temit WinnersDetermined(winnerNumber, winners);\r\n\t\t\r\n\t\tfor (uint256 j = 0; j < winnersCounter; j++) {\r\n\t\t\t// double-check that the address is not empty\r\n\t\t\tif (winners[j] != address(0)) {\r\n\t\t\t\taddress payable winnerAddress = payable(winners[j]);\r\n\t\t\t\twinnerAddress.transfer(winnerEtherAmount);\r\n\t\t\t}\r\n\t\t}\r\n\t\t\r\n\t\tresetData();\r\n\t}\r\n\t\r\n\t/*\r\n\t* Reset the round data.\r\n\t*/\r\n\tfunction resetData() public {\r\n\t\temit DataReset();\r\n\t\tdelete _players;\r\n\t\t_totalBet = 0;\r\n\t\t_numberOfBets = 0;\r\n\t}\r\n}",
  "sourcePath": "C:/Users/x223844/projects/github/ethereum-casino/backend/contracts/Casino.sol",
  "compiler": {
    "name": "solc",
    "version": "0.8.0+commit.c7dfd78e.Emscripten.clang"
  },
  "schemaVersion": "3.3.4",
  "updatedAt": "2021-05-01T01:22:44.679Z",
  "networkType": "ethereum",
  "devdoc": {
    "kind": "dev",
    "methods": {
      "owner()": {
        "details": "Returns the address of the current owner."
      },
      "renounceOwnership()": {
        "details": "Leaves the contract without owner. It will not be possible to call `onlyOwner` functions anymore. Can only be called by the current owner. NOTE: Renouncing ownership will leave the contract without an owner, thereby removing any functionality that is only available to the owner."
      },
      "transferOwnership(address)": {
        "details": "Transfers ownership of the contract to a new account (`newOwner`). Can only be called by the current owner."
      }
    },
    "version": 1
  },
  "userdoc": {
    "kind": "user",
    "methods": {},
    "notice": "NOTE: `SafeMath` is no longer needed starting with Solidity 0.8. The compiler now has built in overflow checking.",
    "version": 1
  }
}